:100000000C942A000C9449000C9472000C949B00F0
:100010000C946B030C9442030C9447000C94F00274
:100020000C9447000C9419030C94C7020C949E0284
:100030000C9447000C9447000C9447000C94470024
:100040000C9447000C9447000C9447000C94470014
:100050000C94470011241FBECFE5D8E0DEBFCDBF12
:1000600010E0A0E6B0E0E8E4FFE002C005900D92E9
:10007000A437B107D9F710E0A4E7B0E001C01D92A2
:10008000A338B107E1F70E948E070C94A2070C94E5
:1000900000001F920F920FB60F9211242F933F93DF
:1000A0004F935F936F937F938F939F93AF93BF9380
:1000B000EF93FF93E0917800F0917900309709F089
:1000C0000995FF91EF91BF91AF919F918F917F9192
:1000D0006F915F914F913F912F910F900FBE0F90B5
:1000E0001F9018951F920F920FB60F9211242F9305
:1000F0003F934F935F936F937F938F939F93AF93B0
:10010000BF93EF93FF93E0917600F09177003097E3
:1001100009F00995FF91EF91BF91AF919F918F9158
:100120007F916F915F914F913F912F910F900FBEF3
:100130000F901F9018951F920F920FB60F921124D7
:100140002F933F934F935F936F937F938F939F93DF
:10015000AF93BF93EF93FF93E0917400F09175001C
:10016000309709F00995FF91EF91BF91AF919F9161
:100170008F917F916F915F914F913F912F910F9050
:100180000FBE0F901F901895909379008093780080
:10019000089590937700809376000895909375006A
:1001A000809374000895CF93DF93EC0188818130B0
:1001B000D1F1813020F0823009F07CC068C083E04A
:1001C00063E040E00E945D018BB780648BBF8A8151
:1001D000813021F483E063E041E003C083E063E029
:1001E00040E00E94D1018981813059F0813030F0A6
:1001F000823069F0833009F05DC00FC085B78E7F13
:1002000002C085B7816085BF85B78D7F3EC085B749
:10021000826085BF85B78E7F38C085B7826085BF15
:1002200085B7816032C083E063E040E00E945D01F9
:100230008BB780688BBF8A81813021F483E063E0D3
:1002400041E003C083E063E040E00E94D101898186
:10025000813051F0813028F0823061F0833051F5E7
:100260000FC085B78B7F02C085B7846085BF85B717
:10027000877F0BC085B7886085BF85B78B7F05C03A
:1002800085B7846085BF85B7886085BF13C081E06E
:1002900061E040E00E945D018BB780628BBF8A8184
:1002A000813019F461E041E003C081E061E040E0A9
:1002B0000E94D101DF91CF910895683008F070C09D
:1002C000843008F06DC0813009F1813030F0823027
:1002D000B1F1833009F064C04BC0413059F42AB306
:1002E00081E090E002C0880F991F6A95E2F7282B01
:1002F0002ABB08952AB381E090E002C0880F991FBD
:100300006A95E2F7809582238ABB0895413059F4BB
:1003100027B381E090E002C0880F991F6A95E2F749
:10032000282B27BB089527B381E090E002C0880FF7
:10033000991F6A95E2F78095822387BB0895413023
:1003400059F424B381E090E002C0880F991F6A95A8
:10035000E2F7282B24BB089524B381E090E002C08B
:10036000880F991F6A95E2F78095822384BB0895D0
:10037000413059F421B381E090E002C0880F991F09
:100380006A95E2F7282B21BB089521B381E090E024
:1003900002C0880F991F6A95E2F78095822381BB7E
:1003A0000895683008F070C0843008F06DC0813066
:1003B00009F1813030F08230B1F1833009F064C04E
:1003C0004BC0413059F42BB381E090E002C0880F5C
:1003D000991F6A95E2F7282B2BBB08952BB381E078
:1003E00090E002C0880F991F6A95E2F780958223FA
:1003F0008BBB0895413059F428B381E090E002C0EE
:10040000880F991F6A95E2F7282B28BB089528B317
:1004100081E090E002C0880F991F6A95E2F780950D
:10042000822388BB0895413059F425B381E090E0E0
:1004300002C0880F991F6A95E2F7282B25BB089503
:1004400025B381E090E002C0880F991F6A95E2F71A
:100450008095822385BB0895413059F422B381E011
:1004600090E002C0880F991F6A95E2F7282B22BB03
:10047000089522B381E090E002C0880F991F6A9529
:10048000E2F78095822382BB08956830D0F48430EF
:10049000C0F4813049F0813028F0823039F0833067
:1004A00081F406C089B305C086B303C083B301C01D
:1004B00080B390E002C0959587956A95E2F78170C8
:1004C000089580E00895843080F4813049F08130CF
:1004D00028F0823039F0833041F406C06ABB0895B9
:1004E00067BB089564BB089561BB0895843080F4B0
:1004F000813049F0813028F0823039F0833041F486
:1005000006C06BBB089568BB089565BB089562BBC8
:100510000895843088F4813049F0813028F08230A9
:1005200039F0833049F406C089B3089586B308953D
:1005300083B3089580B3089580E008951F920F92C9
:100540000FB60F9211242F933F934F935F936F93A6
:100550007F938F939F93AF93BF93EF93FF93E0911C
:100560007E00F0917F00309709F00995FF91EF919F
:10057000BF91AF919F918F917F916F915F914F91BB
:100580003F912F910F900FBE0F901F9018951F92C3
:100590000F920FB60F9211242F933F934F935F93B7
:1005A0006F937F938F939F93AF93BF93EF93FF933B
:1005B000E0917E00F0917F00309709F00995FF915E
:1005C000EF91BF91AF919F918F917F916F915F91CB
:1005D0004F913F912F910F900FBE0F901F90189544
:1005E0001F920F920FB60F9211242F933F934F93A8
:1005F0005F936F937F938F939F93AF93BF93EF938B
:10060000FF93E0917C00F0917D00309709F009950F
:10061000FF91EF91BF91AF919F918F917F916F91DA
:100620005F914F913F912F910F900FBE0F901F90B0
:1006300018951F920F920FB60F9211242F933F938C
:100640004F935F936F937F938F939F93AF93BF93DA
:10065000EF93FF93E0917C00F0917D00309709F0DB
:100660000995FF91EF91BF91AF919F918F917F91EC
:100670006F915F914F913F912F910F900FBE0F900F
:100680001F9018951F920F920FB60F9211242F935F
:100690003F934F935F936F937F938F939F93AF930A
:1006A000BF93EF93FF93E0917A00F0917B00309736
:1006B00009F00995FF91EF91BF91AF919F918F91B3
:1006C0007F916F915F914F913F912F910F900FBE4E
:1006D0000F901F9018951F920F920FB60F92112432
:1006E0002F933F934F935F936F937F938F939F933A
:1006F000AF93BF93EF93FF93E0917A00F0917B006B
:10070000309709F00995FF91EF91BF91AF919F91BB
:100710008F917F916F915F914F913F912F910F90AA
:100720000FBE0F901F90189512BE1CBE13BE89B746
:100730008E7F89BF89B78D7F89BF08951FBC1EBC7E
:100740001DBC1CBC17BC16BC89B78B7F89BF89B781
:100750008F7E89BF089514BC13BC15BC89B78F73F5
:1007600089BF89B78F7B89BF89B78F7789BF089584
:1007700083B7887F83BF08958EB5887F8EBD089527
:1007800085B5887F85BD089523B7FC018281877078
:10079000287F822B83BF08952EB5FC018681877048
:1007A000287F822B8EBD089525B5FC01828187703C
:1007B000287F822B85BD089590937F0080937E00D3
:1007C000089590937D0080937C00089590937B0022
:1007D00080937A000895FC0114BC13BC15BC89B742
:1007E0008F7B89BF89B78F7789BF808184BD8181E5
:1007F00083BD45B55381252F30E0C90181709070CC
:10080000A6E0880F991FAA95E1F7482B2270307057
:100810003595279563E0220F331F6A95E1F7422B48
:1008200045BD5523F9F445B5248130E04068C90140
:100830008170907054E0880F991F5A95E1F7482B0A
:100840002270307035952795B5E0220F331FBA9589
:10085000E1F7422B45BD8681813009F044C089B75C
:10086000806440C05230C1F445B5248130E0406816
:10087000C90181709070A4E0880F991FAA95E1F7D3
:10088000482B227030703595279565E0220F331F75
:100890006A95E1F7422B18C0533029F545B585819B
:1008A00090E09C012170307054E0220F331F5A9564
:1008B000E1F7422B827090709595879525E0880F1F
:1008C000991F2A95E1F7482B45BD8681813059F45F
:1008D00089B793B521E030E002C0220F331F9A950B
:1008E000E2F7822B89BF95B582818770987F892B2B
:1008F00085BD8781813059F0813018F08230E1F474
:1009000011C083E067E040E00E945D01089583E04C
:1009100067E041E00E945D0183E063E040E00E9407
:10092000D101089583E067E041E00E945D0183E02A
:1009300067E041E00E94D1010895CF93DF93EC017D
:100940001FBC1EBC1DBC1CBC17BC16BC89B78B7F52
:1009500089BF89B78F7E89BF888199819DBD8CBDF4
:100960008A819B819BBD8ABD8C819D8197BD86BDFF
:100970002F81222319F489B7846004C0243021F424
:1009800089B7806189BF05C02E3019F48FB58068A2
:1009900002C08FB58C608FBD9FB5822F8370892B6D
:1009A0008FBD9EB58E818770987F892B8EBD4EB589
:1009B000822F90E09C0124703070359527953595F5
:1009C000279553E0220F331F5A95E1F788709070F6
:1009D00033E0959587953A95E1F7B4E0880F991F34
:1009E000BA95E1F7282B242B2EBD8885813059F04C
:1009F000813018F08230D1F40FC083E065E040E030
:100A00000E945D0113C083E065E041E00E945D014A
:100A100083E063E040E008C083E065E041E00E94DD
:100A20005D0183E065E041E00E94D101898581306C
:100A300059F0813018F08230D1F40FC083E064E0C7
:100A400040E00E945D0113C083E064E041E00E9449
:100A50005D0183E063E040E008C083E064E041E0E2
:100A60000E945D0183E064E041E00E94D101DF91DA
:100A7000CF910895DF93CF93CDB7DEB72A970FB606
:100A8000F894DEBF0FBECDBFFE0131962AE0DF0134
:100A90001D922A95E9F79C838B838FE19EE49E83C8
:100AA0008D8382E08F838EE08887CF010E949D0432
:100AB0002A960FB6F894DEBF0FBECDBFCF91DF915F
:100AC0000895FC0112BE1CBE13BE89B78E7F89BF7C
:100AD00089B78D7F89BF808182BF81818CBF43B7F9
:100AE0005381252F30E0C9018170907066E0880F36
:100AF000991F6A95E1F7482B22703070359527953C
:100B0000B3E0220F331FBA95E1F7422B43BF5523C1
:100B1000F9F443B7248130E04068C90181709070D6
:100B2000A4E0880F991FAA95E1F7482B2270307036
:100B30003595279565E0220F331F6A95E1F7422B23
:100B400043BF8681813009F044C089B7816040C0CD
:100B50005230C1F443B7248130E04068C90181704C
:100B6000907054E0880F991F5A95E1F7482B227036
:100B700030703595279585E0220F331F8A95E1F770
:100B8000422B18C0533029F543B7858190E09C0172
:100B900021703070B4E0220F331FBA95E1F7422B79
:100BA000827090709595879575E0880F991F7A955A
:100BB000E1F7482B43BF8681813059F489B79CB750
:100BC00021E030E002C0220F331F9A95E2F7822B1A
:100BD00089BF93B782818770987F892B83BF878174
:100BE000813059F0813018F08230E1F411C081E099
:100BF00063E040E00E945D01089581E063E041E030
:100C00000E945D0181E063E040E00E94D10108950F
:100C100081E063E041E00E945D0181E063E041E04A
:100C20000E94D1010895DF93CF93CDB7DEB7289707
:100C30000FB6F894DEBF0FBECDBFCE0101960E9465
:100C4000610528960FB6F894DEBF0FBECDBFCF91D9
:100C5000DF910895DF93CF93CDB7DEB728970FB616
:100C6000F894DEBF0FBECDBFCE0101960E94610594
:100C700028960FB6F894DEBF0FBECDBFCF91DF919F
:100C80000895809180008F5F809380008C3339F4C9
:100C900010928000809181008F5F8093810080910D
:100CA00081008C3349F41092800010928100809171
:100CB00082008F5F8093820080918200883131F4BE
:100CC000109280001092810010928200089584306A
:100CD000A1F0853028F4813051F08230E9F40AC067
:100CE000803189F08032A1F08830B1F409C080E011
:100CF00061E00BC080E062E008C080E064E005C015
:100D000080E068E002C080E060E10E947602089521
:100D100080E060E20E94760208950F931F9381E0C5
:100D20000E946706809180006AE00E94960782E038
:100D3000692F0E9476020AEF10E0C8010197F1F7CF
:100D400082E00E946706809180006AE00E94960718
:100D5000682F6F7082E00E947602C8010197F1F758
:100D600084E00E946706809181006AE00E949607F5
:100D70009F7082E0692F0E947602C8010197F1F707
:100D800088E00E946706809181006AE00E949607D1
:100D9000682F6F7082E00E947602C8010197F1F718
:100DA00080E10E946706809182006AE00E949607B7
:100DB0009F7082E0692F0E947602C8010197F1F7C7
:100DC00080E20E946706809182006AE00E94960796
:100DD000682F6F7082E00E947602C8010197F1F7D8
:100DE0001F910F91089589E690E00E94CC03089529
:100DF00010928000109281001092820089E690E0AB
:100E00000E94CC0308950E94BC03089582E060E034
:100E100041E00E945D0182E061E041E00E945D01ED
:100E200082E062E041E00E945D0182E063E041E037
:100E30000E945D0182E060E040E00E94D10182E01A
:100E400061E040E00E94D10182E062E040E00E9467
:100E5000D10182E063E040E00E94D10180E060E0E7
:100E600041E00E945D0180E061E041E00E945D019F
:100E700080E062E041E00E945D0180E063E041E0EB
:100E80000E945D0180E064E041E00E945D0180E03D
:100E900065E041E00E945D0180E060E040E00E948A
:100EA000D10180E061E040E00E94D10180E062E099
:100EB00040E00E94D10180E063E040E00E94D10167
:100EC00080E064E040E00E94D10180E065E040E025
:100ED0000E94D10108950E94060789E690E00E94D1
:100EE0009D0481E496E00E94E10380E690E00E9488
:100EF000D30088EF96E00E94C40083E690E00E9451
:100F0000D30083E097E00E94C90086E690E00E944B
:100F1000D30083EF96E00E94CE0008958FB78068DB
:100F20008FBF0E946B070E948D06FDCF991B79E051
:100F300004C0991F961708F0961B881F7A95C9F769
:080F400080950895F894FFCF9D
:100F48000002000103000202000000E8030000059F
:040F5800040202008D
:00000001FF
